S00D000054756E65722E7372656309
S113000014C023C022C021C020C01FC01EC01DC0F8
S11300101CC01BC01AC019C018C017C0A0C015C08E
S113002014C013C012C042C010C011241FBECFE5BB
S1130030D2E0DEBFCDBF20E0A0E6B0E001C01D925B
S1130040A436B207E1F729D0C0C0DACFF89483B759
S11300508B6083BF80E88CBF89B7826089BF789446
S113006008951ABA86B1806886B986B1886086B95F
S113007017B886B1866086B9089586B1806486B95A
S1130080089583E389B98AB188618AB980B586689D
S113009080BD08955D9BFECF089580E094E0D6DF97
S11300A0F0DFDFDF84B3846084BBFFCF1F920F9245
S11300B00FB60F9211242F933F934F935F936F9337
S11300C07F938F939F93AF93BF93EF93FF93D5DF6A
S11300D040916000509161004F5F5F4F9A01ADEC19
S11300E0BCEC67D096958795969587959695879558
S11300F09C01220F331F880F991F880F991F880FA7
S1130100991F820F931F9A01281B390B30936100AA
S11301102093600080916200909163000196909317
S1130120630080936200883E934041F495B384E079
S1130130892785BB1092630010926200FF91EF91B2
S1130140BF91AF919F918F917F916F915F914F91EB
S11301503F912F910F900FBE0F901F9018951F92F3
S11301600F920FB60F9211242F933F934F935F93E7
S11301706F937F938F939F93AF93BF93EF93FF936B
S1130180F89488DF84B18CB985DF85B18CB9789413
S1130190FF91EF91BF91AF919F918F917F916F915B
S11301A05F914F913F912F910F900FBE0F901F9031
S11301B01895A29FB001B39FC001A39F01D0B29F25
S11101C0700D811D1124911D0895F894FFCF38
S9030000FC
